:020000040800F2
:100000001804002049010008410B0008E708000817
:10001000B9090008330200084D0F00080000000075
:10002000000000000000000000000000590C000863
:100030002907000800000000430B0008990D000884
:100040006301000863010008630100086301000800
:1000500063010008630100086301000863010008F0
:1000600063010008630100086301000863010008E0
:1000700063010008630100086301000863010008D0
:1000800063010008630100086301000863010008C0
:1000900063010008630100086301000863010008B0
:1000A00063010008630100086301000863010008A0
:1000B0006301000863010008630100086301000890
:1000C0006301000863010008630100086301000880
:1000D0006301000863010008630100086301000870
:1000E0006301000863010008630100086301000860
:1000F0006301000863010008630100086301000850
:10010000630100086301000863010008630100083F
:10011000630100086301000863010008630100082F
:10012000630100086301000863010008630100081F
:10013000DFF810D000F04CF80048004761120008CA
:10014000AFF30080180400200648804706480047A7
:10015000FEE7FEE7FEE7FEE7FEE7FEE7FEE7FEE777
:10016000FEE7FEE79D0D0008310100082DE9F05F74
:100170000546002092469B46884606468146402416
:100180001BE0284641464746224600F042F85346C7
:100190005A46C01A914110D311461846224600F023
:1001A00029F82D1A67EB01084F462246012000214D
:1001B00000F020F817EB00094E41201EA4F10104C5
:1001C000DFDC484631462A464346BDE8F09F000042
:1001D000064C074D06E0E06840F0010394E8070094
:1001E00098471034AC42F6D3FFF7A6FF0C13000873
:1001F0002C130008202A04DB203A00FA02F1002028
:1002000070479140C2F1200320FA03F31943904054
:100210007047202A04DB203A21FA02F000217047BF
:1002200021FA02F3D040C2F120029140084319465E
:10023000704700BFFEE7000010B50021837A01225D
:1002400002FA03F13D4A126842F001023B4B1A6088
:100250003A4A1C3212688A43384B1C331A60027BBC
:10026000CAB9364A0C3212688A43344B0C331A60CE
:100270004288C38842EA0343304A4032847A42F8D3
:1002800034300288838842EA03432C4A4032847A1D
:1002900002EBC4025360027B012A19D1274A0C32B7
:1002A00012680A43254B0C331A604288038842EADD
:1002B0000343224A4032847A42F83430C288838829
:1002C00042EA03431D4A4032847A02EBC40253607F
:1002D000C27A3AB9194A121D12688A43174B1B1D7C
:1002E0001A6006E0154A121D12680A43134B1B1DC3
:1002F0001A60028932B9114A143212688A430F4BCC
:1003000014331A600289012A06D10C4A1432126889
:100310000A430A4B14331A60427B012A06D1074A6A
:100320001C3212680A43054B1C331A60034A1268D8
:1003300022F00102014B1A6010BD0000006600406F
:1003400030B5024600200023146824F00204146033
:10035000146844F00104146000E05B1C546804F06D
:1003600001041CB94FF6FF74A342F6D1546804F09F
:1003700001040CB900206CE08C79012C04D11468C4
:1003800044F08004146003E0146824F080041460D6
:10039000CC79012C04D1146844F04004146003E0CB
:1003A000146824F0400414600C7A012C04D1146801
:1003B00044F02004146003E0146824F02004146066
:1003C0004C7A012C04D1146844F01004146003E04A
:1003D000146824F0100414608C7A012C04D1146881
:1003E00044F00804146003E0146824F00804146066
:1003F000CC7A012C04D1146844F00404146003E0A6
:10040000146824F0040414608C78A407CD7844EABE
:1004100005640D7944EA05444D7944EA05540D8894
:100420006D1E2C43D461146824F001041460002371
:1004300000E05B1C546804F001041CB14FF6FF742B
:10044000A342F6D1546804F001040CB1002000E08E
:10045000012030BD0246002019B9D36803F0030023
:1004600006E0012903D1136903F0030000E0002036
:10047000704710B500F5D87303EB01131B6803F048
:1004800004031372137A53B900F5D87303EB011305
:100490001B6840F2FF7404EA5353136009E000F54F
:1004A000D87303EB01131B686FF0604404EAD303B5
:1004B000536000F5D87303EB01131B6803F00203CC
:1004C000537200F5D87303EB01135B6803F00F035D
:1004D000937200F5D87303EB01135B681B0AD374A6
:1004E00000F5D87303EB01139B68D37200F5D87342
:1004F00003EB01139B681C0A147300F5D87303EB1C
:1005000001139B681C0C547300F5D87303EB0113A3
:100510009B681B0E937300F5D87303EB0113DB6824
:10052000D37300F5D87303EB0113DB681C0A147452
:1005300000F5D87303EB0113DB681C0C547400F551
:10054000D87303EB0113DB681B0E937421B9C368E6
:1005500043F02003C36003E0036943F02003036119
:1005600010BD10B502460020936803F08063B3F11C
:10057000806F00D110E0936803F00063B3F1006F67
:1005800001D1012008E0936803F08053B3F1805F4C
:1005900001D1022000E00420042874D002F5C073C9
:1005A00003EB00131B6803F0010402F5C07303EBB7
:1005B00000131C600B7A7BB94B7A0C8843EA4453D6
:1005C00002F5C07404EB00142468234302F5C074E0
:1005D00004EB0014236010E00B7A4C6843EAC40378
:1005E0004C7A234302F5C07404EB001424682343BF
:1005F00002F5C07404EB001423608B7A03F00F0340
:100600008B7202F5C07303EB00135B6823F00F04D9
:1006100002F5C07303EB00135C6002F5C07303EBDB
:1006200000135B688C7A234302F5C07404EB00145A
:1006300063608B7B1C064B7B44EA03440B7B44EAE0
:100640000323CC7A234302F5C07404EB0014A360A7
:100650008B7C1C064B7C44EA03440B7C44EA03235A
:10066000CC7B234302F5C07404EB0014E36002F575
:10067000C07303EB00131B6843F0010402F5C07361
:1006800003EB00131C6010BD10B50246002321B11E
:10069000012907D002290FD109E090681D4C00EA1A
:1006A00004030BE090681C4C00EA040306E0906829
:1006B0001A4C00EA040301E0002300BF00BF184CFD
:1006C000181BA34216D007DC83B16FF0806018447A
:1006D00070B1022818D111E0B0F5007F10D0114C94
:1006E000204448B1B0F5003F0ED10BE002230DE0ED
:1006F00000230BE0002309E0002307E0012305E0CD
:10070000012303E0012301E0002300BF00BFD8B2B2
:1007100010BD0000030000040003000800000310E7
:10072000000100080001FFF770472DE9F041024683
:1007300000250026002000230024002791F803C094
:100740000CF00F0591F803C00CF0100CBCF1000F79
:1007500003D091F802C04CEA050591F800C0BCF145
:10076000000F31D0146800202BE04FF0010C0CFA80
:1007700000F3B1F800C00CEA03069E4220D18300CA
:100780004FF00F0C0CFA03F7BC4305FA03FC4CEADC
:10079000040491F803C0BCF1280F06D14FF0010CFE
:1007A0000CFA00FCC2F814C00AE091F803C0BCF1D6
:1007B000480F05D14FF0010C0CFA00FCC2F810C034
:1007C000401C0828D1D31460B1F800C0BCF1FF0F61
:1007D00034DD546800202EE000F1080C4FF00108D1
:1007E00008FA0CF3B1F800C00CEA03069E4221D1CE
:1007F00083004FF00F0C0CFA03F7BC4305FA03FC1F
:100800004CEA040491F803C0BCF1280F05D100F1B3
:10081000080C08FA0CF8C2F8148091F803C0BCF177
:10082000480F07D100F1080C4FF0010808FA0CF846
:10083000C2F81080401C0828CED35460BDE8F08177
:100840000246002093680B400BB1012000E000201D
:100850007047000000B585B00121042000F082F946
:100860000121880300F07EF918208DF813004FF461
:100870000070ADF8100003208DF8120004A915488F
:10088000FFF753FF28208DF813004FF48060ADF878
:10089000100003208DF8120004A90E48FFF745FF51
:1008A0004FF4E13000900020ADF80C000820ADF8C6
:1008B0000A000020ADF80800ADF80600ADF804000D
:1008C0006946054800F0D2FA0121034800F0B4FA65
:1008D00005B000BD00080140003801400AB10161C7
:1008E00000E04161704700BFFEE7000010B5102135
:1008F0001048FFF7A5FF48B901E0012010BD102105
:100900000C48FFF79DFF0028F7D010E008210948A8
:10091000FFF796FF48B901E00220EFE708210548FC
:10092000FFF78EFF0028F7D001E00020E6E700BFC8
:10093000E4E700000018014008B50121402000F064
:1009400011F948208DF803001820ADF800000320AD
:100950008DF8020069460248FFF7E7FE08BD000077
:100960000018014008B50121082000F0FBF8012122
:10097000402000F0F7F810208DF803002020ADF89B
:10098000000001208DF8020069460948FFF7CDFEFE
:1009900069460848FFF7C9FE012220210448FFF7F5
:1009A0009DFF012220210348FFF798FF08BD0000AA
:1009B000000C01400018014000BFFEE700B589B0FF
:1009C0000121042000F0CEF80121480600F0BAF819
:1009D00018208DF823004FF48050ADF8200003203C
:1009E0008DF8220008A92648FFF79FFE48208DF8C1
:1009F00023004FF40060ADF8200003208DF82200A2
:100A000008A91F48FFF791FE00208DF81B008DF804
:100A10001C008DF81F008DF81A0001208DF81D00B4
:100A200000208DF81E008DF8170008208DF81800A2
:100A300007208DF8190001208DF816000020ADF870
:100A4000140005A90F48FFF77BFC01208DF8110069
:100A50000020ADF80C00ADF80400ADF80600ADF8CC
:100A60000800ADF80A008DF80F008DF80E00012087
:100A70008DF8100001A8FFF7DFFB09B000BD0000F2
:100A8000000801400064004030B585B005460021F3
:100A90000D48FFF7DFFC10B9002005B030BD6A46F5
:100AA00000210948FFF7E5FC002405E00DF10B00EB
:100AB000005D2855601C84B29DF80A00A042F5DC58
:100AC0009DF80A00E9E7000000640040F0B585B039
:100AD00007460D4600248DF80A5012200190002090
:100AE0008DF808008DF809001220009000BF05E085
:100AF000395D0DF10B000155601C84B2AC42F7DB8F
:100B000069460648FFF72DFD064600BF31460348FB
:100B1000FFF7BAFD0028F9D005B0F0BD0064004031
:100B200010B504462146054800F00CFA00BF8021AC
:100B3000024800F08DF90028F9D010BD00380140BE
:100B40007047704729B1064AD2690243044BDA6103
:100B500004E0034AD2698243014BDA617047000026
:100B60000010024029B1064A92690243044B9A617F
:100B700004E0034A92698243014B9A617047000086
:100B80000010024030B500210022002400232D4D2A
:100B90006D6805F00C0121B1042905D0082923D185
:100BA00005E0294D056022E0274D05601FE0254D39
:100BB0006D6805F47012234D6D6805F480340225CC
:100BC00005EB92421CB9214D554305600BE01D4DCC
:100BD0006D6805F400351DB11C4D5543056002E0FC
:100BE000194D5543056002E0174D056000BF00BF79
:100BF000144D6D6805F0F0010909154D6B5C056831
:100C0000DD4045600F4D6D6805F4E061090A104D47
:100C10006B5C4568DD4085600A4D6D6805F4605188
:100C2000C90A0B4D6B5C4568DD40C560054D6D68BC
:100C300005F44041890B074D6B5CC568B5FBF3F5C6
:100C4000056130BD0010024000127A0000093D002D
:100C50000000002010000020704710B500F002F8DE
:100C600010BD00000CB500200190009033480068D2
:100C700040F480303149086000BF3048006800F41B
:100C8000003000900198401C0190009818B901981C
:100C9000B0F5A06FF1D12948006800F4003010B120
:100CA0000120009001E0002000900098012843D12D
:100CB0002348006840F01000214908600846006899
:100CC00020F0030008600846006840F00200086059
:100CD0001A48406819494860084640684860084614
:100CE000406840F4806048600846406820F47C100A
:100CF00048600846406840F4E810486008460068CC
:100D000040F08070086000BF0C48006800F0007080
:100D10000028F9D00948406820F0030007494860DE
:100D20000846406840F00200486000BF0348406841
:100D300000F00C000828F9D10CBD000000100240A2
:100D40000020024030B50146B1F1807F01D301207F
:100D500030BD21F07F40401E4FF0E022506150171F
:100D60000F22002807DA13071D0E094B00F00F04AD
:100D7000241F1D5503E013071C0E064B1C5400BF17
:100D800000204FF0E0229061072010610020DFE793
:100D900018ED00E000E400E07047000010B51348D3
:100DA000006840F001001149086008464068104999
:100DB00008400E494860084600680E4908400B4943
:100DC00008600846006820F48020086008464068F3
:100DD00020F4FE0048604FF41F008860FFF73DFFDD
:100DE0004FF000600449086010BD00000010024090
:100DF0000000FFF8FFFFF6FE08ED00E070B50446C6
:100E00000C48FFF79FFF002508E000BF4FF0E020EF
:100E1000006900F480300028F8D06D1CA542F4D39E
:100E20004FF0E020006920F001004FF0E021086160
:100E300070BD00004019010021B1828942F40052C6
:100E4000828104E082894DF6FF731A4082817047E7
:100E500002460020B1F5007F00D100BF13880B408F
:100E60000BB1012000E00020704700002DE9F047A1
:100E700086B005460E460024A24600BFA1460027C4
:100E8000B08900B100BF2F462C8A4CF6FF70044099
:100E9000F08804432C82AC894EF6F3100440B088ED
:100EA00031890843718908430443AC81AC8A4FF609
:100EB000FF400440B0890443AC8201A8FFF762FE02
:100EC0001F48874202D1DDF810A001E0DDF80CA038
:100ED000A88900F4004040B10AEBCA0000EB0A10F8
:100EE00031684900B0FBF1F807E00AEBCA0000EBFB
:100EF0000A1031688900B0FBF1F86420B8FBF0F00B
:100F000004012009642101FB1089A88900F4004034
:100F100040B1322000EBC900B0FBF1F000F0070057
:100F2000044308E0322000EB09106421B0FBF1F02B
:100F300000F00F0004432C8106B0BDE8F0870000EC
:100F400000380140C1F308028280704700BFFEE70D
:100F50000FB4054B10B503A9044A029800F018F825
:100F600010BC5DF814FB00005112000814000020B2
:100F700002E008C8121F08C1002AFAD17047704762
:100F8000002001E001C1121F002AFBD170470000C0
:100F90002DE9FF4F8DB09B460F460446002606E024
:100FA00025280BD05A460F999047641C761C207850
:100FB0000028F5D111B03046BDE8F08F0025A846D5
:100FC0000122984900E0054314F8013F203B02FA52
:100FD00003F00842F7D120782E2817D114F8010F1A
:100FE00045F004052A280ED06FF02F022078A0F1DA
:100FF000300109290AD808EB880102EB410100EB16
:101000000108641CF2E757F8048B641C20786C28F4
:101010000DD004DC4C2812D06A2811D104E07428C9
:101020000DD07A280CD10AE045F4001507E061786C
:1010300045F48015814202D1641C05F58015641CBD
:101040002078692844D008DC0028B3D0582867D01D
:1010500063280FD0642808D13AE0702865D073283F
:1010600012D075285AD078285AD05A460F999047EE
:10107000761CD5E017F8040B8DF8000000208DF8E1
:101080000100E946012003E057F8049B4FF0FF30D0
:1010900069074FF0000501D40AE06D1C45450DDAE3
:1010A0008542FADB19F805100029F6D106E06D1C1F
:1010B0008542FCDB19F805100029F8D12E4404E024
:1010C00019F8010B5A460F9990476D1EF8D2A7E008
:1010D0000A200021CDE90801C5F3025002280CD0F6
:1010E00001CFC117021E71F100020CDA0023D0EB10
:1010F000030063EB01012D2208E0FF1D27F0070725
:10110000F7E80201EEE72A0504D52B228DF8282006
:1011100001223CE0EA073AD02022F7E70A2000E06B
:1011200010200021CDE9080107E01020002145F042
:101130000405CDE908014FF00808C5F30250022864
:1011400010D001CF00214FF0000A2A0720D52278C5
:10115000702A0DD0DDE908C38CF0100C5CEA030C9A
:101160000CD015E0FF1D27F00707F7E80201EAE7BA
:1011700040228DF828204FF0010A0CE050EA0103CC
:1011800006D030238DF828308DF82920022292468F
:101190002278582A04D024A20DF120090B9209E0EC
:1011A00026A2F9E7DDE90823FEF7E0FF0B9B9B5C35
:1011B00009F8013D50EA0102F4D1ADEB09002030FD
:1011C0000890680701D44FF001080899884503DDAD
:1011D0000898A8EB000000E000208046002506E00B
:1011E0000AA85A46405D0F9990476D1C761C5545DC
:1011F000F6DB04E030205A460F999047761CB8F190
:101200000001A8F10108F5DC05E019F8010B5A46C8
:101210000F999047761C0899481E08900029F4DC25
:10122000641CC4E6092801003031323334353637C6
:101230003839616263646566000000003031323322
:1012400034353637383941424344454600000000C2
:1012500070B504460D46E0B2FFF762FC204670BD53
:101260001FB5002400260027A0460025FFF7F2FA4C
:10127000FFF7A4FBFFF760FBFFF774FB1DA0FFF770
:1012800067FE35E0FFF732FB01280CD1002404E0B3
:10129000E01902A90855601CC4B2082CF8DB08212B
:1012A00002A8FFF713FC6846FFF7EEFB8046B8F193
:1012B000000F0DD0002506E01DF8051010A0FFF767
:1012C00047FE681CC5B24545F6DB0EA0FFF740FEA1
:1012D000701CC6B21420FFF791FD142E06D10A48E7
:1012E000006880F02000084908600026781CC7B21A
:1012F000C8E70000B2E2CAD4D6D00D0A0000000050
:10130000257820000D0A00000C0C01402C13000869
:101310000000002018000000700F000844130008AF
:101320001800002000040000800F000800000000EA
:101330000102030401020304060708090204060867
:0413400000000000A9
:0400000508000131BD
:00000001FF
